:020000040800F2
:1000000000000220010A0008FD090008F56200084E
:10001000FD090008FD090008FD09000800000000B6
:10002000000000000000000000000000FD090008C2
:10003000FD09000800000000FD09000879620008C1
:10004000FD090008FD090008FD090008FD09000878
:10005000FD090008FD090008FD090008FD09000868
:10006000FD090008FD090008FD090008815E00087F
:100070008D5E0008FD090008995E0008A55E000875
:10008000F90E01085D530008FD090008FD0900088C
:10009000FD090008FD090008FD090008FD09000828
:1000A000FD090008FD090008FD090008FD09000818
:1000B000CD020108D9020108E502010891530008A8
:1000C000FD0900089D530008FD0900083DFB0008DC
:1000D00049FB00082D0D01085D0D0108910D010877
:1000E000FD090008FD09000800000000FD090008E6
:1000F000FD090008FD090008FD090008FD090008C8
:10010000FD090008FD090008F102010855FB00087F
:10011000C50D0108F90D0108FD090008FD090008D9
:10012000FD090008FD09000879FB0008ADFB000887
:100130002D0F0108FD090008FD090008FD09000850
:1001400000000000000000000000000000000000AF
:10015000FD090008FD090008FD0900082D0E010831
:10016000A9530008FD09000889620008AD62000873
:10017000FD090008D1620008FD090008FD0900081A
:10018000FD090008FD090008610E0108910E010833
:1001900061FB00086DFB0008FD090008FD0900086F
:1001A000FD090008FD090008FD090008FD09000817
:1001B000A15B0008FD090008FD090008FD09000811
:1001C000FD090008FD090008BD4E0008C94E0008E1
:1001D000FD090008D54E0008FD090008FD090008CA
:1001E000FD090008FD090008FD090008FD090008D7
:1001F000FD090008FD090008FD090008FD090008C7
:10020000FD090008FD090008FD090008FD090008B6
:10021000FD090008FD090008FD090008FD090008A6
:10022000FD090008FD090008FD09000800000000A4
:10023000FD090008FD09000800000000FD09000894
:10024000FD090008FD090008FD090008FD09000876
:10025000FD090008FD090008FD090008FD09000866
:10026000FD090008FD090008FD090008FD09000856
:10027000FD090008FD090008C50E01080000000086
:10028000FD090008FD090008FD0900080000000044
:0802900000000000FD09000858
:1002A00010B5054C237833B9044B13B10448AFF3B0
:1002B00000800123237010BD2806002400000000E8
:1002C000889B010808B5034B1BB103490348AFF3F2
:1002D000008008BD000000002C060024889B010857
:1002E00001F0FF01102A2BDB10F0070F08D010F8E7
:1002F000013B013A8B422DD010F0070F42B3F6D1EB
:10030000F0B441EA012141EA014122F007047FF003
:1003100000070023F0E80256083C85EA010586EA5A
:10032000010685FA47F5A3FA87F586FA47F6A5FA96
:1003300087F68EB9EED1F0BC01F0FF0102F00702A2
:1003400032B110F8013B013A83EA010313B1F8D14D
:100350000020704701387047002D06BF354603382E
:10036000073815F0010F07D1013015F4807F02BF67
:10037000013015F4C03F0130F0BC0138704700BFB8
:1003800081F0004102E000BF83F0004330B54FEA46
:1003900041044FEA430594EA050F08BF90EA020FB3
:1003A0001FBF54EA000C55EA020C7FEA645C7FEA46
:1003B000655C00F0E2804FEA5454D4EB5555B8BF69
:1003C0006D420CDD2C4480EA020281EA030382EADA
:1003D000000083EA010180EA020281EA0303362D6C
:1003E00088BF30BD11F0004F4FEA01314FF4801C3F
:1003F0004CEA113102D0404261EB410113F0004F51
:100400004FEA03334CEA133302D0524263EB430307
:1004100094EA050F00F0A780A4F10104D5F1200EA5
:100420000DDB02FA0EFC22FA05F2801841F1000100
:1004300003FA0EF2801843FA05F359410EE0A5F1D4
:1004400020050EF1200E012A03FA0EFC28BF4CF005
:10045000020C43FA05F3C01851EBE37101F00045BB
:1004600007D54FF0000EDCF1000C7EEB00006EEBC8
:100470000101B1F5801F1BD3B1F5001F0CD3490852
:100480005FEA30004FEA3C0C04F101044FEA4452A9
:1004900012F5800F80F09A80BCF1004F08BF5FEA30
:1004A000500C50F1000041EB045141EA050130BD10
:1004B0005FEA4C0C404141EB0101013C28BFB1F522
:1004C000801FE9D291F0000F04BF01460020B1FA6D
:1004D00081F308BF2033A3F10B03B3F120020CDA40
:1004E0000C3208DD02F1140CC2F10C0201FA0CF01E
:1004F00021FA02F10CE002F11402D8BFC2F1200C83
:1005000001FA02F120FA0CFCDCBF41EA0C01904038
:10051000E41AA2BF01EB0451294330BD6FEA040481
:100520001F3C1CDA0C340EDC04F11404C4F120026C
:1005300020FA04F001FA02F340EA030021FA04F37E
:1005400045EA030130BDC4F10C04C4F1200220FAD5
:1005500002F001FA04F340EA0300294630BD21FA13
:1005600004F0294630BD94F0000F83F4801306BFD9
:1005700081F480110134013D4EE77FEA645C18BFCD
:100580007FEA655C29D094EA050F08BF90EA020F64
:1005900005D054EA000C04BF1946104630BD91EA5C
:1005A000030F1EBF0021002030BD5FEA545C05D15F
:1005B0004000494128BF41F0004130BD14F580049E
:1005C0003CBF01F5801130BD01F0004545F0FE4112
:1005D00041F470014FF0000030BD7FEA645C1ABF47
:1005E000194610467FEA655C1CBF0B46024650EA7E
:1005F000013406BF52EA033591EA030F41F40021AA
:1006000030BD00BF90F0000F04BF0021704730B52F
:100610004FF4806404F132044FF000054FF0000104
:1006200050E700BF90F0000F04BF0021704730B5C5
:100630004FF4806404F1320410F0004548BF40429A
:100640004FF000013EE700BF42004FEAE2014FEAEF
:1006500031014FEA02701FBF12F07F4393F07F4FCA
:1006600081F06051704732F07F4208BF704793F0CD
:100670007F4F04BF41F40021704730B54FF46074E0
:1006800001F0004521F000411CE700BF50EA0102E3
:1006900008BF704730B54FF000050AE050EA01028C
:1006A00008BF704730B511F0004502D5404261EBFC
:1006B00041014FF4806404F132045FEA915C3FF43D
:1006C000D8AE4FF003025FEADC0C18BF03325FEADA
:1006D000DC0C18BF033202EBDC02C2F1200300FA8B
:1006E00003FC20FA02F001FA03FE40EA0E0021FAB0
:1006F00002F11444BDE600BF53B94AB9002908BF4E
:1007000000281CBF4FF0FF314FF0FF3000F074B9EC
:10071000ADF1080C6DE904CE00F006F8DDF804E058
:10072000DDE9022304B070472DE9F047089D044637
:100730008E46002B4DD18A42944669D9B2FA82F294
:1007400052B101FA02F3C2F1200120FA01F10CFAD0
:1007500002FC41EA030E94404FEA1C48210CBEFB08
:10076000F8F61FFA8CF708FB16E341EA034306FB91
:1007700007F199420AD91CEB030306F1FF3080F020
:100780001F81994240F21C81023E63445B1AA4B26D
:10079000B3FBF8F008FB103344EA034400FB07F70F
:1007A000A7420AD91CEB040400F1FF3380F00A8150
:1007B000A74240F207816444023840EA0640E41B45
:1007C00000261DB1D4400023C5E900433146BDE8F1
:1007D000F0878B4209D9002D00F0EF800026C5E993
:1007E000000130463146BDE8F087B3FA83F6002EAB
:1007F0004AD18B4202D3824200F2F980841A61EB23
:10080000030301209E46002DE0D0C5E9004EDDE740
:1008100002B9FFDEB2FA82F2002A40F09280A1EB28
:100820000C014FEA1C471FFA8CFE0126200CB1FB7D
:10083000F7F307FB131140EA01410EFB03F0884276
:1008400008D91CEB010103F1FF3802D2884200F203
:10085000CB804346091AA4B2B1FBF7F007FB101195
:1008600044EA01440EFB00FEA64508D91CEB040433
:1008700000F1FF3102D2A64500F2BB800846A4EB8E
:100880000E0440EA03409CE7C6F12007B34022FA79
:1008900007FC4CEA030C20FA07F401FA06F31C43A8
:1008A000F9404FEA1C4900FA06F3B1FBF9F8200CB5
:1008B0001FFA8CFE09FB181140EA014108FB0EF0FB
:1008C000884202FA06F20BD91CEB010108F1FF3A4B
:1008D00080F08880884240F28580A8F10208614457
:1008E000091AA4B2B1FBF9F009FB101144EA014165
:1008F00000FB0EFE8E4508D91CEB010100F1FF3410
:100900006CD28E456AD90238614440EA0840A0FBA7
:100910000294A1EB0E01A142C846A64656D353D07D
:100920005DB1B3EB080261EB0E0101FA07F722FAA1
:1009300006F3F1401F43C5E9007100263146BDE8CA
:10094000F087C2F12003D8400CFA02FC21FA03F32D
:10095000914001434FEA1C471FFA8CFEB3FBF7F0AE
:1009600007FB10360B0C43EA064300FB0EF69E42D3
:1009700004FA02F408D91CEB030300F1FF382FD26C
:100980009E422DD9023863449B1B89B2B3FBF7F614
:1009900007FB163341EA034106FB0EF38B4208D9ED
:1009A0001CEB010106F1FF3816D28B4214D9023E2E
:1009B0006144C91A46EA004638E72E46284605E74C
:1009C0000646E3E61846F8E64B45A9D2B9EB02081D
:1009D00064EB0C0E0138A3E74646EAE7204694E7AD
:1009E0004046D1E7D0467BE7023B614432E73046E0
:1009F00009E76444023842E7704700BFFEE700BFE2
:100A00000B480C4A904203D0121A0B4915F048FCCF
:100A10000A480B4A904203D0121A002115F04EFCEE
:100A200005F092FE15F010FC02F046F9FEE700BF5B
:100A30000000002424060024BC9B01082806002492
:100A4000B4F50424704700BF704700BF704700BF73
:100A5000704700BF704700BF704700BF704700BFBE
:100A6000704700BF704700BF704700BF704700BFAE
:100A70002DE9F04F2DED0A8B85B01F4814460392E7
:100A8000029104F05BF91D4804F058F91C4804F089
:100A900055F91C4804F052F91B4804F04FF91B4863
:100AA00004F04CF91A4A1B4BF5EE006A12881B88B9
:100AB00007EE102A07EE903A174BB8EE477AF8EE99
:100AC000677A27EE267A67EEA67A83ED007A134BD3
:100AD000C3ED007A002C01F0CA87114E002306F501
:100AE000104906F5704806F5A83706F5783506F57D
:100AF0008824009301F04BBED0930424E093042497
:100B0000F0930424009404241094042420940424D6
:100B100004960424069604246C9404248C940424DF
:100B20004406002490C2753D6666663F5FED037A19
:100B30005FED034A26EE276AC6EE057A77EEA47AC1
:100B4000F24B27EEA65AC6ED057AB0EEE66A03F53B
:100B50008050D3F85C1886ED065A00F6F87300F65C
:100B6000E47200F6F47A01F2DB5E92ED005AD3ED06
:100B7000007AE74A67EEC57A9AED005A019183ED53
:100B8000005A00F57E6340F2DC50E049D3ED004AA4
:100B9000A2FB0EC3AAF1040C5B09E4EE857A9CED7E
:100BA000005A00FB13E3AAF10C0EC1F85C38D1F82F
:100BB0006018DEED004A0B44AAF6F471E4EEC57A43
:100BC000A1F5F66B03F1010EA1F580519BED005AE2
:100BD00036EE855A75EE277ACAED007AA2FB03BA83
:100BE000A2FB0EB201F65C0B4FEA5A1A520900FB47
:100BF0001A3A0B4600FB12E0019903F5805203F606
:100C000058030BEB810102F6EC72D3ED004A0BEBBB
:100C10008A0A13680BEB800082ED005ACCF8003092
:100C2000ABF10803C1ED027A9AED02CAD0ED027A67
:100C300077EECC7AA7EEA4CAD3ED004A66EE247A0A
:100C4000B0EE676A36EE8C5AB0EEC55AA4EE856AED
:100C5000B5EE406AF1EE10FA01F005879FEDAD5A4E
:100C6000DFEDAD4A67EE857A87EE865A35EE245A77
:100C7000AA4825EE0C4A36EECCCAD0F8042100F57D
:100C8000805100F5C553D0ED3F4A02F2DB5A00EB2C
:100C9000820C01F68C0100F58052D3ED007A183BEE
:100CA00002F69C02D1ED006A994964EEA55A67EEFE
:100CB000E67AD2ED006A90ED3E6AC3ED066A93EDE6
:100CC000003AA1FB0AE340F2DC5ED0ED403A5B095A
:100CD000E3EE267A37EE066A0EFB13A3A2F1040AAE
:100CE000C0F80431D0F80801DAED006A0344A2F13B
:100CF0000C0090ED003A581CE3EE667A76EE277A07
:100D0000C2ED007AA1FB03B2A1FB00B1520949096F
:100D10000EFB1233814A0EFB110002EB830302EB40
:100D2000800002F5805202F69401A2F5C04202F65C
:100D30004C0282ED005A0A6881ED006ACAF8002070
:100D4000CCED437AD3ED437AD0ED436A6F4A76EE29
:100D5000E76A02F50563E6EEA37A83ED004AF0EE5A
:100D6000656A37EE277AB0EEC77AE4EE876AF5EE69
:100D7000406AF1EE10FA01F072869FED666A9FED0F
:100D8000667A65EE865A85EEA66A36EE076A634B8A
:100D900066EE273A99ED367A40F2DC5A03F5805137
:100DA00083ED3D6AC3ED3E3AD1F840090A46D1F8D9
:100DB0003C3901F51361D9ED316A03F2DB5C91ED49
:100DC000006A534927EE667AD9ED355A36EE676ADE
:100DD000A1FB0CE199ED305AD9ED344AF0EEE76A07
:100DE0004909A5EE257A99ED324AB1EE675A0AFB18
:100DF00011C1C9ED365A0844C2F83C1902F63C113B
:100E0000434A00F1010EA4EE647A01EB830CA2FBCD
:100E100000B3A2FB0EB25B0952090AFB13030AFBE3
:100E200012EE37EE067AD9F8CC2001EB830301EB02
:100E30008E0189ED336AC9F8D020394A89ED357AB7
:100E40008CED027A93ED027A02F6381391ED026A84
:100E5000D3ED005A02F6341336EE476AA6EE257A31
:100E600093ED006A66EE866AF0EE665A77EE677A70
:100E7000F0EEE77AE6EE275AF5EE405AF1EE10FA78
:100E800001F0E985DFED237A9FED236A66EEA76A1C
:100E9000C6EEA57A77EE867A224B67EE876A204AFD
:100EA00035EE477A997E2AEE0BAA02F62C131E48DD
:100EB000A1F1FF0137EE0CCAC3ED007A02F513630E
:100EC000B1FA81F1C3ED006A490913F035F817480A
:100ED0002AEE007AD0F8F02100F58051D0ED7B4A5F
:100EE00002F2DB5A01F68C1300EB820C01F678114A
:100EF00000F58052D3ED007AD1ED005A183B02F68E
:100F00008812034967EEE57A12E000BF4416002418
:100F1000F119760590C2753D6666663F4466002409
:100F200044760024D0930424DC94042444C6002492
:100F300090ED7A4AD2ED005A27EE2B7AD0ED796AFD
:100F4000C3ED065AD3ED003AA1FB0AE340F2DC5EA2
:100F500077EE266A5B09E3EEA57AB0EEC75A0EFB80
:100F600013A3A2F1040AC0F8F03125EE046AD0F808
:100F7000F401DAED005A0344A2F10C00D0ED003A7E
:100F8000581CE3EEE57A76EEA77AC2ED007AA1FB73
:100F900003B2A1FB00B1520949090EFB1233F24A18
:100FA0000EFB110002F5CC5102EB830302EB800033
:100FB0000A68C1ED006ACAF80020CCED7E7AD3ED54
:100FC0007E6AD0ED7E7A77EEE67AE7EEA46AF0EEFE
:100FD000464A77EE267AF0EEE77AE4EE274AF5EE17
:100FE000404AF1EE10FA01F03285DFEDE05ADFED14
:100FF000E07A26EE256AC6EE245A75EEA75ADA4B39
:1010000025EEA63AD8ED717A40F2DC5A03F580510C
:10101000C3ED785A83ED793AD1F82C0A0A46D1F813
:10102000283A01F61C2198ED6C6A03F2DB5CD1EDE5
:10103000005AD04967EEC67AD8ED704A76EEA55AC6
:10104000A1FB0CE1D8ED6B2A98ED6F4AB0EEE66A91
:101050004909E2EEA47AD8ED6D3A0AFB11C1C8ED58
:10106000714A0844C2F8281A02F62821C14A00F140
:10107000010EE3EEC47A01EB830CA2FB00B3A2FBEA
:101080000EB25B0952090AFB13030AFB12EE75EE5E
:10109000A77AD8F8B82101EB830301EB8E01C8EDE4
:1010A0006E5AC8F8BC21B44AC8ED707ACCED027A09
:1010B000D3ED025A02F62423D1ED027AD3ED004A91
:1010C00002F5226377EEE57A93ED004AE7EEA45A43
:1010D00066EE047AB0EE676A76EEA54AF0EEE44A70
:1010E000A4EE246AB5EE406AF1EE10FA01F0AB848A
:1010F000DFED9E4A9FED9E4A67EEA47AC7EE864AD0
:1011000074EE844A9D4864EEA53A76EEE56AD0F81E
:10111000D02200F5805190EDB24A02F2DB5A01F67E
:101120006C2300EB820C01F6582100F58052D3EDC0
:10113000007AD1ED005A183B02F668228D4967EE1D
:10114000E57A90EDB16AD2ED005A24EE055A90EDA1
:10115000B33A37EE066AC3ED065AD3ED002AA1FB77
:101160000AE340F2DC5E5B09E2EEA57A0EFB13A314
:10117000A2F1040AC0F8D032D0F8D402DAED005A55
:101180000344A2F10C00D0ED002A581CE2EEE57AEF
:1011900076EE277AC2ED007AA1FB03B2A1FB00B183
:1011A000520949090EFB1233744A0EFB110002EB7F
:1011B000830302F5D35102EB8000A2F5A04202F6B0
:1011C0001822C2ED004A0A6881ED006ACAF80020C0
:1011D000CCEDB67AD3EDB67A90EDB66A664A36EEC5
:1011E000676A02F61C23E6EE037AC3ED003AB0EE1E
:1011F000456A37EE277AB0EEC77AA4EE076AB5EEF5
:10120000406AF1EE10FA01F01A84DFED585A9FEDB2
:10121000587A25EE255AC5EE065A75EE875A574B71
:1012200065EEA73A97EDA97A40F2DC5A03F58051B2
:10123000C3EDB05AC3EDB13AB1EE67AAD1F8083B9D
:101240000A46D1F80C0B01F6FC2103F2DB5C97EDAA
:10125000A46AD1ED005A474927EE467A97EDA85A7D
:1012600075EEE75AA1FB0CE197EDA33AD7EDA74A3B
:10127000B0EEE76A4909A3EE057A97EDA54A0AFBA5
:1012800011C187EDA95A0844C2F8081B02F60831BB
:10129000384A00F1010EA4EE647A01EB830CA2FB44
:1012A00000B3A2FB0EB25B0952090AFB13030AFB4F
:1012B00012EE35EE877AD7F8982201EB830301EB23
:1012C0008E01C7EDA65AC7F89C222D4A87EDA87A51
:1012D0008CED027A93ED027A02F60433D1ED025AD4
:1012E00093ED005A02F5306375EEC75AA5EE857A84
:1012F000D3ED005A26EE256AB0EE465A77EE677AAD
:10130000F0EEE77AA5EEA75AB5EE405AF1EE10FAE4
:1013100001F09183DFED157ADFED155A26EE276A8D
:10132000C6EE057A77EEA57A164B3AEE47AA144A2E
:1013300027EE877A93F82A1069EE8B9A02F6F82343
:101340007AEE266AA1F1FF010F48C3ED007A02F69A
:10135000FC23B1FA81F136EE8CAA83ED007A4909BB
:1013600012F0EAFD12E000BF44C6002490C2753DB1
:101370006666663FF119760544D6002444260124AA
:1013800044360124D09304240C950424F24869EED9
:10139000809AD0F8BC2300F5805190EDEE5A02F20D
:1013A000DB5A01F6583300EB820C01F6443100F5AC
:1013B0008052D3ED007A91ED006A183B02F6543268
:1013C000E64967EEC67AD0EDED4A92ED006A69EE25
:1013D000ABBA90EDEC7A83ED066A93ED004AA1FB7F
:1013E0000AE340F2DC5E3BEE877A5B09E4EE067AC4
:1013F000F0EEEB5A0EFB13A3A2F1040AC0F8BC33C3
:1014000065EEA46AD0F8C0039AED006A0344A2F125
:101410000C0090ED004A581CE4EE467A77EE277AED
:10142000C2ED007AA1FB03B2A1FB00B15209490948
:101430000EFB1233C84A0EFB110002EB830302EBD2
:10144000800002F5805202F64C310A6881ED007A84
:10145000CAF80020CCEDF17A93EDF17AD0EDF17A73
:1014600077EEC77AA7EE857AB0EE665A7BEE877A7A
:10147000F0EEE77AA4EEA75AB5EE405AF1EE10FA74
:1014800001F0D5829FEDB66ADFEDB67A66EE866A28
:1014900086EE856A36EE276AB34B66EE073A40F26F
:1014A000DC5AD3EDE47AA3F50050D3EDDF6AA3F55F
:1014B000405293EDE35A014667EEE67A93EDDE3A49
:1014C000D3EDE24AF0EEC76A93EDE04AE3EE057A27
:1014D00083EDE45A0B4601F6E83182EDEB6A91EDBB
:1014E000006AD0F8F4BB37EE066A9F49E4EE647AEE
:1014F0000BF2DB5CC2EDEC3A984AD0F8F80B76EED2
:10150000277AC1EDE37AA2FB0CE149090AFB11C17C
:101510000844C3F8F41B03F6F43100F1010E01EBAB
:101520008B0CA2FB00B3A2FB0EB25B0952090AFBB3
:1015300013038D480AFB12EED0F8842301EB8303DA
:1015400001EB8E0180EDE16AC0F88823A0F500521E
:10155000CCED027A93ED026A02F53F63D1ED027A97
:1015600093ED005A02F6EC3377EEC67AD3ED004ADB
:10157000A7EE856A66EEA47AF0EE676A37EE065A41
:10158000B0EEC55AE4EE856AF5EE406AF1EE10FA67
:1015900001F04982DFED724A9FED725A67EEA47A3C
:1015A000C7EEA64A34EE855A704B65EE064A37EE12
:1015B000466A03F58050D3F89C1400F6244200F6E6
:1015C000384300F6344A01F2DB5ED3ED007A92ED47
:1015D000007A624A67EEC77A9AED007A019183ED4C
:1015E000007A00F5426340F2DC506049D3ED006AB6
:1015F000A2FB0EC3AAF1040C5B09E6EE877A9CED10
:10160000007A00FB13E3AAF10C0EC1F89C34D1F868
:10161000A014DEED006A0B44AAF63441E6EEC77A68
:10162000A1F5376B03F1010EA1F580519BED007A16
:101630003BEE877A77EE277ACAED007AA2FB03BAEF
:10164000A2FB0EB201F29C4B4FEA5A1A520900FB60
:101650001A3A0B4600FB12E0019903F5805203F59C
:1016600093630BEB810102F62C42D3ED006A0BEB86
:101670008A0A13680BEB800082ED007ACCF8003008
:10168000ABF10803C1ED027ADAED027A90ED027A4D
:10169000374A37EE677AE7EE267A93ED007A02F65C
:1016A000E43367EE256A83ED005A02F6E833F0EE84
:1016B000665AC3ED004A7BEEA7BAF0EEEBBAE7EE4E
:1016C0002B5AF5EE405AF1EE10FA01F0A8819FED89
:1016D000245A9FED247A66EE856A86EEA54A34EE9A
:1016E000074A244BF0EEE74A64EE273A03F5005030
:1016F000D3F8D41CF1EE675A00F58E6300F25C4219
:1017000000F26C4A01F2DB5E93ED007AD2ED006AE2
:10171000124A27EE667ADAED006A0191C3ED006A9B
:1017200000F58B6340F2DC50124993ED005AA2FBA6
:101730000EC3AAF1040C5B09A5EE267ADCED006A63
:1017400000FB13E3AAF10C0EC1F8D43CD1F8D81C6D
:101750009EED005A0B440FE044860124F1197605F2
:1017600090C2753D6666663F44B6012444E6012496
:101770004496012444F60124AAF26C41A5EE667A4F
:10178000A1F5005103F1010E01F6C84BDBED006A33
:1017900076EEE76A36EE877A8AED007AA2FB03BA24
:1017A000A2FB0EB201F6D44B4FEA5A1A520900FBC3
:1017B0001A3A0B4600FB12E0019903F5005203F5BB
:1017C0004D630BEB810102F2644293ED003A0BEBA7
:1017D0008A0A13680BEB8000C2ED006ACCF8003077
:1017E000ABF1080381ED027ADAED026A90ED025A5C
:1017F000F24A35EE665AE5EE036A93ED005A02F2BC
:101800008C4324EE857A83ED004A02F59263F0EE74
:10181000474AC3ED003A76EEE77AF0EEE77AE5EE76
:10182000274AF5EE404AF1EE10FA01F0F480DFEDC0
:10183000E47A9FEDE45A27EE277AC7EE247A37EE52
:10184000857AE14B75EEE67AE04A67EE266A93F810
:101850003A1069EE0B9A02F6C443DD48A1F1FF018C
:1018600037EE869A83ED007A02F6C843B1FA81F129
:10187000C3ED006A39EE0AAA490912F05DFBD54BA7
:1018800029EE807A03F58050D3F8881500F551626F
:1018900000F6245300F5526A01F2DB5ED2ED006AD5
:1018A00027EE2A7AD3ED007ACB4A67EEE67ADAEDB4
:1018B000006A0191AAF5E951C3ED006A00F60C53E4
:1018C00040F2DC50F0EEC75A93ED006AA2FB0EC363
:1018D000AAF1040C5B09E6EE267ADCED006A00FB57
:1018E00013E3AAF10C0EC1F88835D1F88C159EEDE2
:1018F000006A0B44AAF55261E6EE667AA1F6842BE3
:1019000003F1010EAAF5E951DBED006A77EE266AD4
:1019100076EEA77ACAED007AA2FB03BAA2FB0EB25A
:1019200001F5B16B4FEA5A1A520900FB1A3A0B46FD
:1019300000FB12E0019903F5805203F284530BEB94
:10194000810102F6185293ED006A0BEB8A0A1368C4
:101950000BEB8000C2ED006ACCF80030ABF108035D
:10196000C1ED027A9AED029AD0ED027A77EEC97A49
:10197000A7EE869A93ED006A65EE866AB0EE665A27
:1019800077EE097AF0EEE77AA6EE275AB5EE405ADE
:10199000F1EE10FA01F03B809FED896ADFED897A64
:1019A00066EE866A86EE854A34EE274A8B4BF0EE69
:1019B000C96A64EE093A03F50050D3F8C01D00F57A
:1019C000A96200F25C5300F5AB6A01F2DB5ED3ED75
:1019D000007A92ED006A804A67EEC67A9AED006A54
:1019E000019183ED006A00F2445340F2DC507B49E0
:1019F00093ED005AA2FB0EC3AAF1040C5B09E5EEBD
:101A0000067A9CED006A00FB13E3AAF10C0EC1F804
:101A1000C03DD1F8C41D9EED005A0B44AAF5AB6140
:101A2000E5EE467AA1F5005103F1010E01F6B45B33
:101A30009BED005A39EE055A75EE277ACAED007A09
:101A4000A2FB03BAA2FB0EB201F55C6B4FEA5A1A75
:101A5000520900FB1A3A0B4600FB12E0019903F50C
:101A6000005203F6BC530BEB810102F5AA62D3EDE1
:101A7000004A0BEB8A0A13680BEB800082ED005AD8
:101A8000CCF80030ABF10803C1ED027A9AED026A9E
:101A9000D0ED027A4F4A77EEC67AA7EEA46AD3ED6C
:101AA000004A02F5AF6366EEA47A83ED004A02F2C3
:101AB0007C53F0EE676AC3ED003A39EE065AB0EE99
:101AC000C55AE4EE856AF5EE406AF1EE10FA00F0D0
:101AD0009A87DFED3B4A9FED3B5A67EEA47AC7EE4B
:101AE000A64A74EE854A3E4B24EE864A39EE466A93
:101AF00003F58050D3F8681600F55F6200F60463C2
:101B000000F5606A01F2DB5ED3ED007AD2ED006A87
:101B1000314A67EEE67ADAED006A0191AAF5F051F2
:101B2000C3ED006A00F6EC5340F2DC5093ED005A2E
:101B3000A2FB0EC3AAF1040C5B09E5EE267ADCEDEC
:101B4000006A00FB13E3AAF10C0EC1F86836D1F865
:101B50006C169EED005A0B44AAF56061E5EE667ABC
:101B6000A1F6A41B03F1010EAAF5F051DBED006A0A
:101B700077EE266A76EEA77ACAED007AA2FB03BA60
:101B8000A2FB0EB201F5CD6B4FEA5A1A520900FBC7
:101B90001A3A0B4600FB12E0019903F5805203F25A
:101BA00064630BEB810102F6F85293ED005A0BEBE4
:101BB0008A0A13680BEB800014E000BF44E601249E
:101BC00090C2753D6666663FD093042444F60124B6
:101BD0003C95042444460224F11976054456022417
:101BE00044A60224C2ED006ACCF80030ABF1080331
:101BF000C1ED027ADAED027AD0ED026AF14A76EEB0
:101C0000E76AE6EE857A93ED005A02F55B6365EECE
:101C1000256AC3ED004A02F6B453F0EE665A83ED2E
:101C2000004A37EE277AB0EEC77AE5EE075AF5EEAE
:101C3000405AF1EE10FA00F0E2869FEDE35A9FED74
:101C4000E37A66EE856AC6EEA54A74EE874AE04BF3
:101C5000F0EEE75A24EEA74A03F50050D3F8A01E91
:101C6000B1EE679A00F23C6300F5C56200F5C76A01
:101C700001F2DB5E93ED007AD2ED006AD54A27EEE1
:101C8000667ADAED006A0191C3ED006A00F224631E
:101C900040F2DC50CE4993ED005AA2FB0EC3AAF1EC
:101CA000040C5B09A5EE267ADCED006A00FB13E369
:101CB000AAF10C0EC1F8A03ED1F8A41E9EED005A68
:101CC0000B44AAF5C761A5EE667AA1F5005103F1B0
:101CD000010E01F6946BDBED006A76EEE76A36EEF4
:101CE000877A8AED007AA2FB03BAA2FB0EB201F555
:101CF0006A6B4FEA5A1A520900FB1A3A0B4600FB6C
:101D000012E0019903F5005203F69C630BEB81018D
:101D100002F5C66293ED005A0BEB8A0A13680BEBCF
:101D20008000C2ED006ACCF80030ABF1080381ED11
:101D3000027ADAED026A90ED027AA74A37EE667A05
:101D4000E7EE056A93ED005A02F5CB6325EE857A3E
:101D5000C3ED004A02F25C63F0EE475A83ED004A9D
:101D600076EEE77AF0EEE77AE5EE275AF5EE405A9E
:101D7000F1EE10FA00F03F86DFED937A9FED935A73
:101D800027EE277AC7EE257A77EE857A934B39EEE0
:101D9000669A8F4A67EEA66A93F84A1068EE8B8AB5
:101DA00002F569638E48A1F1FF0139EE069AC3ED91
:101DB000007A02F69463B1FA81F1C3ED006A39EE5C
:101DC0000A9A490912F0B8F8864B28EE807A03F592
:101DD0008050D3F8541700F6DC6200F56F6300F60C
:101DE000EC6A01F2DB5ED2ED006A27EE2A7AD3EDCF
:101DF000007A784A67EEE67ADAED006A0191F0EE51
:101E0000C75AC3ED006A00F6D86340F2DC5075494A
:101E100093ED006AA2FB0EC3AAF1040C5B09E6EE87
:101E2000267ADCED006A00FB13E3AAF10C0EC1F880
:101E30005437D1F858179EED006A0B44AAF6EC61AE
:101E4000E6EE667AA1F6B80B03F1010EA1F580511A
:101E5000DBED006A77EE266A76EEA77ACAED007AA5
:101E6000A2FB03BAA2FB0EB201F2547B4FEA5A1A4C
:101E7000520900FB1A3A0B4600FB12E0019903F5E8
:101E8000805203F5EA630BEB810102F6E46293ED05
:101E9000005A0BEB8A0A13680BEB8000C2ED006A54
:101EA000CCF80030ABF10803C1ED027A9AED026A7A
:101EB000D0ED027A77EEC67AA7EE856A93ED005AE6
:101EC00065EE856A77EE067AB0EE46AAB0EE666AEF
:101ED000F0EEE77AA5EE276AB5EE406AF1EE10FA69
:101EE00000F085859FED385ADFED387A66EE856A19
:101EF00086EE864A34EE274A3B4BF0EECA6A64EE21
:101F00000A3A03F50050D3F88C1F00F2247A00F54A
:101F1000E56300F2147201F2DB5E9AED005AD3ED34
:101F2000007A92ED006A83ED005A00F5E263294AD7
:101F300067EEC67A93ED006A40F2DC50A2FB0EC356
:101F4000AAF1040C0191E6EE057A5B0926499CEDA5
:101F5000006A00FB13E3AAF10C0EC1F88C3FD1F824
:101F6000901F9EED005A0B44AAF22471E5EE467ACA
:101F7000A1F5845B03F1010EA1F500519BED005A20
:101F80003AEE055A75EE277ACAED007AA2FB03BA3B
:101F9000A2FB0EB201F68C7B4FEA5A1A520900FBE3
:101FA0001A3A0B4600FB12E0019903F5005203F6C2
:101FB00088730BEB810102F21C72D3ED004A0BEB2C
:101FC0008A0A13E04456022490C2753D6666663F55
:101FD00044B60224F119760544A60224D0930424C1
:101FE0006C950424440603244416032413680BEB65
:101FF000800082ED005ACCF80030ABF10803C1ED4F
:10200000027A9AED026AD0ED027AF04A77EEC67A49
:10201000A7EEA46AD3ED004A02F2447366EEA47AF6
:1020200083ED004A02F5E963F0EE676AC3ED003A1A
:102030003AEE065AB0EEC55AE4EE856AF5EE406A0D
:10204000F1EE10FA00F0CF84DFEDE94A9FEDE95A96
:1020500067EEA47AC7EEA64A74EE854ADC4B24EEFE
:10206000864A3AEE466A03F58050D3F8341800F6F3
:10207000BC7200F57D6300F6CC7A01F2DB5ED3ED35
:10208000007AD2ED006AD34A67EEE67ADAED006AAA
:102090000191C3ED006A00F6B87340F2DC50CC4900
:1020A00093ED005AA2FB0EC3AAF1040C5B09E5EE06
:1020B000267ADCED006A00FB13E3AAF10C0EC1F8EE
:1020C0003438D1F838189EED005A0B44AAF6CC717A
:1020D000E5EE667AA1F5FB6B03F1010EA1F58051E7
:1020E000DBED006A77EE266A76EEA77ACAED007A13
:1020F000A2FB03BAA2FB0EB201F6340B4FEA5A1A46
:10210000520900FB1A3A0B4600FB12E0019903F555
:10211000805203F503630BEB810102F6C47293ED69
:10212000005A0BEB8A0A13680BEB8000C2ED006AC1
:10213000CCF80030ABF10803C1ED027ADAED027A97
:10214000D0ED026AA44A76EEE76AE6EE857A93ED70
:10215000005A02F67C7365EE256AC3ED004A02F56B
:102160007863F0EE665A83ED004A37EE277AB0EED8
:10217000C77AE5EE075AF5EE405AF1EE10FA00F094
:102180002E849FED9B5A9FED9B7A66EE856A86EEC4
:10219000A55A35EE075A914B40F2DC5C65EE273AC2
:1021A000A3F5C051A3F50062D3ED002AF0EEE75A83
:1021B00002F60803C86E02F2F472D1ED194A93EDEB
:1021C000007AA3F1040B92ED004A00F2DB5AD1ED44
:1021D000186AB1EE67AA91ED1A3A01EB800127EE79
:1021E000447A9BED004A0191A3F6080183ED004A71
:1021F00076EEE76A774A01F5FE63A1F5805165EE58
:10220000A45A93ED002AA2FB0A03086F5B09A2EE11
:10221000047A0CFB13A3CB66034401F5805101F54E
:10222000FF6E591C9EED004AA2FB030EA2FB0102A9
:1022300067484FEA5E1EA4EE627A52090CFB1E3319
:102240000CFB1211664A00F6240C02EB830302EB2E
:10225000810102F580528CED005A36EE877A02F247
:10226000FC72D2F800C0C2ED006AC2F804C0019A44
:102270008BED007A82ED1D7AB0EE657AD3ED1D6AA2
:1022800000F6280391ED1D5AC3ED003A35EE665A6B
:10229000E5EE036A76EEE77AF0EEE77AA4EEA77A47
:1022A000B5EE407AF1EE10FA00F09683DFED507A49
:1022B0009FED505A65EEA75AC5EE877A77EE857A7C
:1022C0003AEE667A464B67EEA66A4648C3ED177A41
:1022D00040F2DC5A37EE067AC3ED186A28EE0B8A14
:1022E000414B37EE099A93F85A10A1F1FF01B1FA68
:1022F00081F1490911F020FED5ED2F7A95ED2A6A7A
:1023000028EE000A394967EEC67A95ED2E7AD1F8A3
:1023100020390A46D1F8240901F61411D5ED295ABD
:1023200003F2DB5C85ED2F7A20EE2A0AE5EE877A50
:1023300091ED007A2749D5ED2D6A30EE077AA1FBA1
:102340000CE195ED2B6AB0EEC05A4909E6EE667ACB
:102350000AFB11C10844C2F8201902F512611D4A96
:1023600000F1010E01EB830CA2FB00B3A2FB0EB245
:1023700077EE277A5B0952090AFB13030AFB12EE78
:10238000D5F8B02001EB8303C5ED2E7A01EB8E0169
:10239000C5F8B420154A85ED2C7ACCED027A93ED80
:1023A000027A02F61C13D1ED027AD3ED006A02F62E
:1023B000181377EEC77A93ED006AA7EEA67A65EE5A
:1023C000066AF0EE664A70EE077A15E044060324CA
:1023D00044660324F119760544160324449E03241D
:1023E000448603249C950424D093042444C60324E7
:1023F00090C2753D6666663FF0EEE77AE6EE274AE4
:10240000F5EE404AF1EE10FA00F0E3821FED086AA3
:102410005FED087A66EE866AC6EEA45A75EEA75A94
:10242000EE48F0EEC76AD5F8582165EE873A00F617
:10243000F40300F50E6102F2DB5A05EB820CD3EDDA
:10244000007A00F50F6291ED004AE54967EEC47A23
:1024500092ED004A95ED536A83ED004A00F6DC03E5
:10246000D5F85C0137EE066AD3ED002AA1FB0AE33A
:1024700040F2DC5E95ED553A5B09E2EE847AD5EDEB
:10248000544A0EFB13A3A2F1040A66EEA46AC5F82F
:10249000583103449AED004AA2F10C00D0ED002A15
:1024A000581CE2EEC47A76EE277AC2ED007AA1FBE0
:1024B00003B2A1FB00B1520949090EFB1233AAF67F
:1024C000EC020EFB1100AAF10401A2F5405205EB4B
:1024D000830305EB800002F51162C2ED005AF0EEB5
:1024E000665A0A6881ED006ACAF80020CCED587A75
:1024F00093ED586AD0ED587ABA4A77EEC67A02F66A
:102500001413A7EE836AC3ED003A77EE067AF0EE75
:10251000E77AE4EEA75AF5EE405AF1EE10FA00F031
:102520005582DFEDB17ADFEDB14A66EEA76AC6EEFD
:10253000A57A77EEA46AD4ED677A40F2DC5AD4ED3E
:10254000624A66EE863AAA4967EEE47AD4ED665AA4
:10255000D1F8003A0A46D1F8040A01F6F41194EDD4
:10256000613A03F2DB5CC4ED675AE3EE257AD4ED01
:10257000654A77EE465A91ED007A994994ED634A9F
:1025800030EE077AA1FB0CE1C5ED526A4909E4EE91
:10259000647AC5ED533A0AFB11C10844C2F8001A27
:1025A00002F520618E4A00F1010E77EE277A01EBE9
:1025B000830CA2FB00B3A2FB0EB25B09C4ED667AEA
:1025C00052090AFB13030AFB12EED4F8902101EB27
:1025D000830384ED647A01EB8E01C4F89421844A6C
:1025E000CCED027AD3ED027A02F6FC1391ED027A79
:1025F000D3ED006A02F6F81337EE677AE7EE267A33
:1026000093ED007A67EE056AB0EE666A30EE270A4F
:10261000B0EEC00AA7EE006AB5EE406AF1EE10FA1D
:1026200000F0D1819FED705A9FED707A66EE856A59
:10263000C6EE864A74EE874A6E48B0EEE75AD4F882
:10264000382224EEA73A00F6D41300F51C6102F2FA
:10265000DB5A04EB820C93ED007A00F51D62D1ED9C
:10266000003AF1EE676A5E4927EE637AD2ED003AEE
:1026700094ED8B6AC3ED003A00F6BC13D4F83C022B
:1026800036EE676A93ED002AA1FB0AE340F2DC5EB6
:10269000D4ED8D2A5B09A2EE237A94ED8C4A0EFBD1
:1026A00013A3A2F1040A25EE045AC4F838320344F5
:1026B000DAED003AA2F10C0090ED002A581CA2EECF
:1026C000637A37EE067A82ED007AA1FB03B2A1FBB2
:1026D00000B1520949090EFB1233AAF6CC120EFBC7
:1026E0001100AAF10401A2F5405204EB830304EBAC
:1026F000800002F51F62C2ED004A0A6881ED006A9F
:10270000CAF800208CED907A93ED906A90ED907A63
:10271000374A37EE467A02F6F413A7EE226A83EDC3
:10272000003AB0EE457A76EE677AF0EEE77AA4EEFC
:10273000277AB5EE407AF1EE10FA00F04181DFED34
:102740002A7ADFED2A4A25EE275AC5EE077A77EE78
:10275000A47A36EEC67A0299009A27EE866A0B684A
:1027600037EE257AC4ED8A7A03EB820384ED8B6A17
:1027700037EE097A83ED007A4B6803EB820383ED31
:10278000007A531C039A00939A4200F070811A4910
:1027900044F2A71219484B68D1ED007A02FB03F30B
:1027A00000EE103A4B60BAEEE00A20EE270A8DEDFB
:1027B000010A11F03DFC9DED010A114811F038FCB1
:1027C0009DED010A0F4811F033FC9DED010A0E4802
:1027D00011F02EFC9DED010A18E000BF44F6032421
:1027E000F119760544C6032490C2753D6666663FBE
:1027F0004426042444560424309304241C910424C5
:1028000068910424B4910424009204249A4811F09D
:102810000FFC9DED010A994811F00AFC984B99486C
:1028200093ED0CCA93ED1FAAD3ED329A93ED459A1E
:10283000D3ED588A93ED6B8A11F0C2FCF7EE007A63
:10284000914BB9EE001BD3ED006A37EEC07AD3EDA1
:10285000017AB6EE080B37EE267A27EE277AB7EE26
:10286000C77A37EE000B11F0EBFE874B874893EDEC
:10287000027A93ED03BAB7EEC77A854BB7EECB6A0F
:10288000B4EE470BF1EE10FA48BFB0EE470BB4EED2
:10289000C06BF1EE10FA58BFB7EEC0BB93ED000A63
:1028A00011F08EFE7B4BF0EE40BA7B4893ED000AB0
:1028B00011F086FE794B7A48F0EE40AA997A2CEE18
:1028C0000BCAA1F1FF01B1FA81F1490911F034FB02
:1028D0007448754B2CEE007A00F2AC727349D3ED5C
:1028E000007A92ED005A00F2BC72736A27EE2B7ADE
:1028F00067EEC57A92ED005A03F2DB5A06EB830CC1
:1029000000F5F863D6ED066A96ED084AF0EEC75A70
:1029100083ED005A00F5F563B06A77EE266AD3EDD1
:10292000003AA1FB0AE340F2DC5ED6ED074A5B0900
:10293000E3EE857A25EEA46A0EFB13A3A2F1040A46
:10294000736203449AED005AA2F10C00D0ED003AF4
:10295000581CE3EEC57AB0EE465A76EEA77AC2ED81
:10296000007AA1FB03B2A1FB00B1520949090EFB99
:1029700012330EFB1100AAF1040106EB83030A686F
:1029800006EB8000C1ED006ACAF80020CCED0B7A9E
:10299000D3ED0B6AD0ED0B7A77EEE67AE7EE846A38
:1029A00077EE267AF0EEE77AA4EEA75AB5EE405A13
:1029B000F1EE10FA7EF4BAA8DFED3D7AFEF7C0B86A
:1029C000DFED3B7AC5E6DFED3A4A35E6DFED386A02
:1029D000B1E5DFED375A23E5DFED357A70E49FEDA1
:1029E000345AFFF7D8BBDFED324AFFF737BB9FED14
:1029F000304AFFF781BADFED2E7AFFF7C7B9DFED76
:102A00002C4AFFF724B9DFED2A4AFFF76CB89FED97
:102A1000284AFEF7CBBF9FED267AFEF712BF9FED47
:102A2000244AFEF75EBE9FED225AFEF7BDBD9FED24
:102A3000206AFEF731BDDFED1E7AFEF775BCDFEDD3
:102A40001C5AFEF7ECBBDFED1A4AFEF75BBBDFED6D
:102A5000185AFEF7D4BADFED167AFEF71DBA9FEDCD
:102A6000146AFEF794B99FED125AFEF701B905B04A
:102A7000BDEC0A8BBDE8F08F4C920424989204249C
:102A80001C910424389304240C910424709404248D
:102A90006C9404248C94042490940424D0930424EF
:102AA000AC94042444160024041E0024F119760575
:102AB0000000000041F64401002200F10C03014433
:102AC00002604260826010B546F2EC0404440022C9
:102AD00041F6380CDFF870E0DA601A61C3F808E0FC
:102AE000634441F89C2CA34241F8982C41F8942C63
:102AF00041F8902C41F88C2C41F8882C41F8842C1A
:102B00006144E4D147F624114CF2CC14014404444E
:102B1000002241F6380CDFF830E0DA601A61C3F8C1
:102B200008E0634441F89C2C9C4241F8982C41F801
:102B3000942C41F8902C41F88C2C41F8882C41F8C9
:102B4000842C6144E4D110BD48E17A3F38B5144C7F
:102B50002DED028BB0EE408A04F5907501212046E0
:102B6000B0EE480A11F0D2F82046DFED0E0AB4EEBE
:102B7000000A11F03BF920469FED0B0A11F08CF989
:102B800020464FF07E533034B4EE000A44F8303C17
:102B900011F0AAF9AC42E1D1BDEC028B38BD00BF07
:102BA000AC940424000000001283003E2DE9F043A1
:102BB000002385B000F118064FF00A0804464FF0D4
:102BC0005E090D468DF80D30CDF80080012390F898
:102BD0002C101746304603AA8DF80C9002F080FCAA
:102BE000CDF800800DF10B0294F8303094F82C10E1
:102BF000002818BF43F00103304684F83030012329
:102C000002F096FC94F83030002818BF43F001031E
:102C100084F83030A5F17303072B01D94D4517D146
:102C20000A2303AA30468DF80C50009302238DF836
:102C30000D7094F82C1002F053FC94F830300028FA
:102C400018BF43F0010384F8303005B0BDE8F083CD
:102C5000022303AACDF80080304694F82C1002F02D
:102C60003FFCCDF8008094F8303003AA94F82C1083
:102C7000002818BF43F0010330468DF80C5084F84B
:102C8000303002238DF80D7002F02AFCCDF8008060
:102C9000054694F8301003AA9DF80B303046002DFD
:102CA00018BF41F001018DF80C908DF80D30022312
:102CB00084F83010BDE700BF2DE9F04F0021E44853
:102CC000DFF8C4932DED068B95B000F0C7FDE14B06
:102CD0000421DF48059300F039FDDF4B0321DC4878
:102CE000079300F013FDDA48DC4900F00BFD0023E8
:102CF0001846069301F0D2FFD54841F2B87B00F0A8
:102D000021FD059BDFEDD67A46F2E006F3EC019A51
:102D100047F69808A9F10C05CB44059344F69C03AB
:102D200039EEA79A4E444B44C8444C4609ED030A79
:102D3000049349ED029A49ED017A19ED038A04F5ED
:102D400080579FEDC87AF0EE008A07F5F26341F2F2
:102D5000EC7AC7EE087A85ED049A85ED038A0AEBD2
:102D60000400B0EE480AC5ED077A83ED008A83EDD2
:102D7000019AC3ED028A11F037F9B0EE490A0AEB65
:102D8000040011F0B9F92A6907F5F7630421C7F8BF
:102D9000B8179A6083ED018AC3ED038ADBF800302F
:102DA0008B4233D19BED028ADFEDAF7A9BED010AB6
:102DB00068EE277A87EE800A12F076F9DBED036A77
:102DC0008BED040A88EE267AB0EE406A60EE006A67
:102DD000F7EE007ACBED087A76EEE77A96EE876A20
:102DE0008BED057AA6EE870A77EE076A66EEA76A8C
:102DF00077EE007A37EE067A86EEA76AC7EE276A84
:102E00008BED076ACBED066ACBED096A002141F232
:102E1000707204F1200046F2E00713F04FFA00222E
:102E200040F2DB53DFED8F6AA261274495ED036A20
:102E3000B0EE00AA95ED047A07F5805ADFED888A96
:102E400047F6CC00C6EE077A2044039079EEE88A74
:102E5000BDEEE77A17EE102AB8EEC76A9A4277EE0F
:102E6000C67A28BF1A460AF5F263E261C4ED057A14
:102E700019ED038AC6ED018AC6EE887A86ED008ACE
:102E8000B0EE480AC6ED047A83ED008AC3ED018AEC
:102E900083ED02AA11F0A8F80398B0EE680A11F0C9
:102EA0002BF971680AF5F7630420CAF8B80799602E
:102EB00083ED03AA83ED018AD8F80030834233D131
:102EC00098ED028ADFED687A98ED010A68EE277ABC
:102ED00087EE800A12F0E8F8D8ED036A88ED040A5C
:102EE00088EE267AB0EE406A60EE006AF7EE007A6D
:102EF000C8ED087A76EEE77A96EE876A88ED057A6D
:102F0000A6EE870A77EE076A66EEA76A77EE007A82
:102F100037EE067A86EEA76AC7EE276A88ED076A5B
:102F2000C8ED066AC8ED096A41F2707204F5C24044
:102F3000002113F0C3F90023BB6140F2DB53D6ED4F
:102F4000006A96ED017AC6EE877ABDEEE77A17EE53
:102F5000102AF8EEC76A9A4277EEE67A28BF1A4638
:102F600041F638031D441C449B441E449844049B72
:102F7000FA619D42C7ED057A7FF4DFAE069C09F544
:102F80004149C4F11C0009F1CC09C0B200F0A4FB16
:102F9000364A03469FED360A02EB04100134ADF8C1
:102FA00024300999069401F0AFFE294800F0CAFBCD
:102FB000079D284611F018F82B46059A28464C33F1
:102FC00012ED010A079311F097F8062C7FF494AEE6
:102FD0001F4800F0B7FB274B274C4FF080421B786F
:102FE0009FED268A042B84ED010A84ED028A23607A
:102FF000E2604BD1DFED227A87EE800A12F054F8BE
:10300000DFED206A84ED040AC4ED056A20EE007A43
:10301000B0EE406AF0EE407AF7EE005A97EE266A7C
:10302000E7EE267A37EE657AC4ED085A27EE087A7D
:1030300077EEA67A76EE266A87EE276A86EEA77A7C
:1030400084ED076A84ED067A84ED097A1EE000BFFC
:1030500030940424040000241C910424710A000804
:103060006666E63E007BA748D00FC940D093042493
:1030700000007A441C0000249C9304240000DC43DC
:1030800097C92C4500005C4350060024C94B4FF003
:1030900001094FF07E55C848C3F804904FF000086E
:1030A0001D6000F04FFBFFF751FDC34800F04AFBE5
:1030B000C24810F099FF9FEDC20AC0480AAF11F054
:1030C0001BF8C04B4FF07D52BF4CDD60BE465A60CE
:1030D000A446BE4A04F11C054FF0100ACDF83C800E
:1030E000A260412610925A22227440F20C62A282FF
:1030F0000022C4E900891A609A60BCE80F00DCF87D
:1031000000C00FC7C7F800C0BEE80F000FC50FA969
:1031100004F1180085F800C0CDE911988DF84CA095
:1031200002F048F994F8303080216322404518BFFE
:1031300043F00103204684F83030FFF737FD48465E
:1031400003F04AF942465E212046FFF72FFD94F82E
:1031500014A094F815900A254FF000085E2794F803
:103160002C1001230FAA009599488DF83D808DF809
:103170003C7002F0B5F994F83010012300950AAACA
:10318000404518BF41F00101914884F8301094F88F
:103190002C1002F0CDF994F8301002230095404530
:1031A00018BF41F001010FAA894884F8301094F843
:1031B0002C1002F095F994F8301002230095404548
:1031C00018BF41F001010FAA814884F8301094F82B
:1031D0002C108DF83C608DF83DA002F081F994F838
:1031E00030C002239DF82820404518BF4CF0010C48
:1031F00000958DF83D200FAA84F830C094F82C106B
:1032000073488DF83C7002F06BF994F8301001238C
:1032100000950FAA404518BF41F001016C488DF898
:103220003D8084F8301094F82C108DF83C7002F03A
:1032300057F994F83010012300950AAA404518BFA9
:1032400041F00101624884F8301094F82C1002F02B
:103250006FF994F8301002230095404518BF41F0F3
:1032600001010FAA5A4884F8301094F82C1002F08B
:1032700037F994F830C0721C0095404518BF4CF0E7
:10328000010C022394F82C1002368DF83C200FAA72
:1032900084F830C0F6B24E488DF83D9002F020F927
:1032A00094F83020022300959DF8281040450CBF6B
:1032B000154642F001050FAA45488DF83D1084F8E7
:1032C000305094F82C108DF83C7002F009F994F805
:1032D0003030404518BF43F00103592E84F8303098
:1032E0007FF439AF01222B213748FFF75FFC012221
:1032F0002C213548FFF75AFC2D2133480E22FFF7C9
:1033000055FC42462E213048FFF750FC01222F2168
:103310002D48FFF74BFC052230212B48FFF746FCD8
:10332000312129480122FFF741FC4246322126483B
:10333000FFF73CFC424633212348FFF737FC424667
:1033400034212148FFF732FC424635211E48FFF761
:103350002DFC42465B211C48FFF728FC10225C2113
:103360001948FFF723FC20225D211748FFF71EFCB8
:1033700039468C221448FFF719FC0F4884F8308036
:1033800000F0E0F9DFED130A134811F007F90A48DD
:1033900000F0D8F9DFED0F0A104811F0FFF80648E9
:1033A00000F0D0F9B7EE006AF0EE407A0C4D4FF025
:1033B0007C5319E03093042430940424E4920424D0
:1033C000000076440C910424689304240108010948
:1033D000809304249A99193E7094042490940424B0
:1033E000389304240000C8421FED027A2846584E44
:1033F000C6EE276A6B60EB60564BC5ED057A2B6114
:103400000023B0EE470A85ED027AEB61524FC5ED1D
:10341000066A11F0B7F840F2011385ED080AB5EE1F
:10342000000A2846AB8585F8008085ED020A11F078
:10343000A9F885ED080A494D4FF00A094FF0000838
:1034400094F82C1001230AAACDF800904448C246F3
:103450008DF8288002F044F894F830C0022394F8E4
:103460002C100FAA404518BF4CF0010CCDF800906D
:103470003B48C34684F830C002F05AF8BDF83C100F
:10348000024694F83030C1F30B013648424518BF6C
:1034900043F00103B1EB080184F8303018BF01217B
:1034A00000F070F94FF0040C94F82C1001230AAAD4
:1034B000CDF800902A488DF828C002F011F894F851
:1034C00030C0022394F82C100FAA404518BF4CF0CE
:1034D000010CCDF800902248C14684F830C002F0BB
:1034E00027F894F830C0BDF83C301021404518BF93
:1034F0004CF0010C0F22A5F80080A6F8008084F89B
:1035000030C003E083B2AAB1013A01395FEAD33C8B
:103510004FEA4300F6D00429A2F1030E04DD1FFA9E
:103520008EF8E14683B2EFE71FFA81FBE24683B2F1
:10353000002AE9D13B80BAF1000F01D0A5F800B014
:10354000B9F1000F3FF478AFA6F8008074E700BF30
:1035500006960424DB0F49400896042404960424AC
:10356000809304243094042438B541480023414C0E
:10357000414D424A424903604361036211F058F8E9
:10358000204604F54144FFF795FACC34AC42F7D11C
:1035900000203A4A3B49044611F04AF83A485A2377
:1035A00001223A490361C36240F20C630262436143
:1035B000816041623649C0E90042C0E906442F4AB1
:1035C00011F036F82D4A3349334811F031F82B4ABF
:1035D0003249204611F02CF8284A3149314811F07F
:1035E00027F8264A3049314811F022F8304B03F5CC
:1035F0009070303300222F490024834243F8302C4E
:1036000043F82C2C43F8281C43F8242C43F8201CA6
:1036100043F81C1C43F8181C43F8142C43F8102CD6
:1036200043F80C2C03F8044C03F8034CE1D1134A83
:103630002046214910F0FCFF104A2049204810F094
:10364000F7FF0E4A1D491F4810F0F2FF0B4A1E49B2
:103650001E4810F0EDFF094A1B491D4810F0E8FF15
:103660002046064A1B49BDE8384010F0E1BF00BFC4
:1036700030940424440600240C9104240000002407
:10368000450A00085D0A000868930424010801093E
:10369000610A0008550A0008309304246D0A0008E6
:1036A000510A0008E49204244D0A000838930424C7
:1036B000AC940424000080BF650A0008490A000891
:1036C000CC950424E8950424590A00087094042435
:1036D00090940424690A0008202882B009D8084B75
:1036E00003EB400213F81030507843EA002002B098
:1036F000704701230C2043EA002002B0704700BF4E
:1037000050770108143001F00DBA00BF38B500F150
:10371000140504462DED028B284601F0BFF928461A
:1037200001F0B8F92846B0EE408A01F0A1F9D0EDD9
:10373000007AF8EE677A88EE277ABDEC028B84ED8A
:103740000E7A38BD143001F0A5B900BF38B500F1CC
:10375000140504462DED028B284601F08DF928460C
:1037600001F098F92846B0EE408A01F081F9D0EDD9
:10377000007AF8EE677A88EE277ABDEC028B84ED4A
:103780000E7A38BD253001F095BC00BFF0B503239B
:1037900099B000270125129306462C4B09A81595D0
:1037A000CDE90E7340F20453ADF84030284BCDE91B
:1037B0001357099301F094FB09A801F06DFC002850
:1037C00036D1244B04AF04460090CDF8423010238C
:1037D000394604958DF820301F4BCDE91650CDE9C0
:1037E00006506846059301F0E5FD0823009A01A9FB
:1037F00009A8ADF804508DF806400994029503938A
:1038000000F0E4F800230EA938463024049302F0B7
:10381000C3FB03224FF07E5309A906F114000B935A
:103820000C93CDE90942049A01F0EAF819B0F0BD11
:1038300040F60132074B169704AFADF824200998E3
:10384000CDF84230179500F081F8DBE7040204045C
:1038500003030001040604030704010B2DE9F043F0
:1038600004462DED028B83B0002948D0012140F29F
:10387000011200230091ADF804208DF80630304A83
:103880000126304B271D304904F12908626040F2BF
:103890000272A36040F60663E16004F12509268206
:1038A000A4F8252084F82760A4F8293084F82B6038
:1038B00002F000FF6946054648B304F130008DF878
:1038C000066002F055FE072D34D104F114052046A0
:1038D000FFF75CFF284601F0DDF82846B0EE408A8D
:1038E00001F0C6F8D0ED007AF8EE677A88EE277A14
:1038F00084ED0E7A03B0BDEC028BBDE8F08340F29C
:10390000011300918DF80610ADF80430B7E704F10B
:10391000300002F02DFE3946204601F0BDFF48463A
:1039200001F0DEFA404601F0DBFA04F1120000F08B
:1039300077F9CAE73946204601F0AEFFC5E700BF78
:103940000508050905070506050A060610B584B031
:1039500003460124ADF8040003A8ADF80C30ADF81F
:103960000E4001F0BDFA214603A801F0A3FB20465A
:1039700002F032FD002103A801F09CFB204602F07A
:103980002BFD214603A801F095FB04B010BD00BF3C
:1039900010B5C2F3002384B00C46017C8DF80D20D5
:1039A00043EA4402FA2402238DF80C2003AA00946F
:1039B00001F096FD18B10124204604B010BD044664
:1039C0000A2002F009FD204604B010BD034670B580
:1039D00043F8042B044684B007C983E80700A379A1
:1039E00083B91A210B461E22FA2523742046ADF80E
:1039F0000C20022303AA009501F072FD28B10120DA
:103A000004B070BD1B210B46EDE70A2002F0E4FC78
:103A10004FF4B85200950223ADF80C20204603AABB
:103A2000217C01F05DFD0028E9D10A2002F0D4FCE0
:103A300041F2027200950223ADF80C20204603AA41
:103A4000217C01F04DFD0028D9D10A2002F0C4FCF0
:103A5000042200950223ADF80C20204603AA217C05
:103A600001F03EFD0028CAD10A2002F0B5FC062272
:103A700000950223ADF80C20204603AA217C01F01A
:103A80002FFD0028BBD10A2002F0A6FC41F208223B
:103A900000950223ADF80C20204603AA217C01F0FA
:103AA0001FFD0028ABD10A20064602F095FC0095C8
:103AB000022303AA217C2046ADF80C6001F010FD22
:103AC00000289CD1304602F087FC009522790C2317
:103AD0002046002A8DF80C3003AA4FF0020314BFD1
:103AE000622142218DF80D10217C01F0F9FC0028A3
:103AF00085D1304602F070FC2279D4E902310B43C3
:103B0000DBB20AB943F0400362790AB143F0200303
:103B10000E22FA258DF80D302046009502238DF8EF
:103B20000C2003AA217C01F0DBFC00287FF467AFA6
:103B30000A2002F051FC102200950223ADF80C205F
:103B4000204603AA217C01F0CBFC00287FF457AF6C
:103B50000A2002F041FC122100950223ADF80C105E
:103B600003AA217C204601F0BBFC00287FF447AF6C
:103B70000A2002F031FC012209212046FFF708FF4C
:103B8000003818BF01203BE7F0B5102387B0234C65
:103B9000012200250126002702A920460195CDE932
:103BA00002234FF48052CDE9046709F05BFC6420E6
:103BB00003F0BEFB02A94FF480522046CDE9046712
:103BC00002261027CDE9026709F04CFC03221023DE
:103BD00002A92046CDE9022300230422CDE90423D3
:103BE0004FF4805209F03EFC40F23223042202A935
:103BF000019310232046CDE90223019A0123059267
:103C00004FF48052049309F02DFC40F60601204643
:103C100009F048FC284607B0F0BD00BF1496042404
:103C20001C4B00221C494FF0400C30B5054689B0B2
:103C30000220596007219A601A620124DA620A227E
:103C40004FF4006EDC6006922022CDE900010420D2
:103C50000821CDE9020103201021CDE9040108204B
:103C60006946C3E904024FF4C072181DC3E906C2D5
:103C70004FF48052C3E909E209F0CAFB38B928467B
:103C8000FFF782FF003818BF012009B030BD204681
:103C900009B030BD1096042440410052614A002111
:103CA000D0B513688EB00A91002B40F0B9805E4BFE
:103CB00001214FF683700C2411600221D3F8D42027
:103CC0000026032742F48052C3F8D420D3F8D4202E
:103CD00002F480520092009AD3F8E02042F01002E1
:103CE000C3F8E020D3F8E02002F010020192019A1C
:103CF000D3F8E02042F04002C3F8E020D3F8E020FF
:103D000002F040020292029AD3F8E02042F0080248
:103D1000C3F8E020D3F8E02002F008020392039AEF
:103D2000D3F8E02042F48072C3F8E020D3F8E0201A
:103D300002F480720492049AD3F8E02042F08002E8
:103D4000C3F8E020D3F8E02002F080020592059A43
:103D5000D3F8E02042F02002C3F8E020D3F8E020BE
:103D600002F020020692069AD3F8E02042F0040204
:103D7000C3F8E020D3F8E0300C9403F00403079379
:103D80000323079A0B93CDE9080108A9274804F0FB
:103D900075FB48F23712022308A925480C94CDE997
:103DA0000823CDE90A6704F069FB4CF20372022391
:103DB00008A920480C94CDE90823CDE90A6704F04E
:103DC0005DFB40F2FF62022308A91B480C94CDE979
:103DD0000823CDE90A6704F051FB4FF60C72022369
:103DE00008A916480C94CDE90823CDE90A6704F028
:103DF00045FB4FF63F02022308A911480C94CDE978
:103E00000823CDE90A6704F039FB2022022308A920
:103E10000A480C94CDE90A67CDE9082304F02EFB8B
:103E20000EB0D0BD0C960424004402580010025875
:103E300000180258000C025800200258001C0258BA
:103E4000001402582DE9F04FDFF8108406460D46A5
:103E5000144608F118002DED028B89B000AF02F076
:103E600093F9D8F8183073B3D8F81C30D8F8049008
:103E7000002B43690BBF4FF0080A4FF0100A4FF0B8
:103E8000020B4FF0040BB9F1000F2AD0A200EA4652
:103E9000012B02F1070222F00702ADEB020D68468A
:103EA000ADEB020D694600F03F81022B00F0D68099
:103EB000002B6FD02246C847D5462437BD46BDECFF
:103EC000028BBDE8F08FD8F81C30002BF5D0D8F865
:103ED00004904FF0080A4FF0020B4369B9F1000F4C
:103EE000D4D1FB61D8F80030BB61002BE5D0D548B8
:103EF00002F0BCF96B46BBF1020F786108EE103A94
:103F0000FB6900F083816A465146A2EBC4029546E4
:103F10006200EA46B2FBFBF2AAEBC40085460AEB5C
:103F20008200EE46F861ADEB010DF8690EEB820CF4
:103F3000C7F810C0EC46ADEB010D00EB8201CCF8E8
:103F40000400CCF8081001EB82013869E946CCF88E
:103F50000C1000EB8201CCF800A001EB8202C9E951
:103F600000E0C9E90212012B00F06483022B00F08B
:103F70006C82002B00F08081620849466046BB6974
:103F8000984718EE103A24379D46BD46BDEC028B8B
:103F9000BDE8F08F002C8DD01A46D8ED0C6A9FED4D
:103FA000B27A8446331D36F922E00CF1080C07EE94
:103FB00090EA33F922E00232F8EEE77A944267EEB3
:103FC000877A67EEA67A4CED027A07EE90EAF8EE71
:103FD000E77A67EE877A67EEA67A4CED017AE2D847
:103FE000F9612246C847984ED8ED0D6A0020F9695C
:103FF0002B1D9FED9E7A9FED9E6ADFED9E5A22E07B
:10400000F4EEC67AF1EE10FAC0F2C88447F6FE72FA
:10401000D1ED017A45F8202066EEA77AF4EEC77A52
:10402000F1EE10FA40F2F080F4EEC67AF1EE10FAFA
:10403000C0F2D58447F6FE7243F8202002300831E2
:1040400084427FF639AFD1ED007A66EEA77AF4EEBE
:10405000C77AF1EE10FAD3D83246D9E7002C3FF4F4
:1040600029AFD8ED0C6A84469FED787A0022331D83
:104070008E4656F822100CF1080C07EE901A53F8F1
:1040800022100232F8EEE77A944267EE877A67EE02
:10409000A67A4CED027A07EE901AF8EEE77A67EE10
:1040A000877A67EEA67A4CED017AE2D8714622460D
:1040B000C7F81CE0C847664ED8ED0D6A0020F969C4
:1040C0002B1D9FED6A7A9FED6A6ADFF894C120E0AC
:1040D000F4EEC67AF1EE10FAC0F279843246D1EDF0
:1040E000017A45F8202066EEA77AF4EEC77AF1EE61
:1040F00010FA40F28780F4EEC67AF1EE10FAC0F2C0
:104100005E84324643F820200230083184427FF634
:10411000D3AED1ED007A66EEA77AF4EEC77AF1EE6F
:1041200010FAD5D86246DAE7002C3FF4C3AED8EDDA
:104130000C6A86469FED477A4FF0000C331D56F807
:104140002C200EF1080E82F40002A2F5000207EE08
:10415000902A53F82C200CF1020CF8EEE77A82F446
:1041600000026445A2F5000267EE877A67EEA67A40
:104170004EED027A07EE902AF8EEE77A67EE877A3C
:1041800067EEA67A4EED017AD9D8F9612246C84782
:10419000314ED8ED0D6A0020F9692B1D9FED337A61
:1041A0009FED336ADFF8BCC01FE0F4EEC67AF1EE93
:1041B00010FAC0F2FC833246D1ED017A45F8202096
:1041C00066EEA77AF4EEC77AF1EE10FA18D9F4EE9B
:1041D000C67AF1EE10FAC0F2DA83324643F82020B4
:1041E0000230083184427FF667AED1ED007A66EE88
:1041F000A77AF4EEC77AF1EE10FAD6D86246DBE77A
:104200006246EBE762467DE7324615E7A100D646F7
:104210006208073121F00701ADEB010DEA46ADEB75
:10422000010D6946ADEB0E0D0AEB8200EC46ADEBDD
:104230000E0D01EB8202F861E946CCE900A0C9E964
:10424000001290E6649604240280FFFF0000003014
:104250000082FF7F0000003482FF7F004896042424
:10426000007E00807E0080FF0000003804FF7FBFDA
:1042700004FF7F3F00FEFF46002C00F0C982BBF127
:10428000020FD8F8242000F0FA827969C7F8049068
:1042900002EB810E5FED0C5A8A00DCF808100EF17B
:1042A00004007A611A46DCF80C303B61331DD7F804
:1042B00010903D61FD69C7E902CB8C46834636F913
:1042C0002210D8ED0C7A06EE101A33F9221006EE01
:1042D000901A3EF92210B8EEC66A07EE101AF8EEF0
:1042E000E66A3BF92210B8EEC77A26EE256A66EE3A
:1042F000A56A27EE257A26EE276A66EEA76A27EEDC
:10430000277A07EE901A51080232F8EEE77A0AEBA4
:104310008100944280ED006A05EB810067EEA57A8A
:10432000C0ED006A0CEB810009EB810180ED007AA1
:1043300098ED0C7A67EE877AC1ED007ABFD8D7F88E
:1043400004903D69D7E902CB60466208BB694946E3
:104350009847D8F82C307A69D8ED0D6A1A441FEDC9
:104360003D7A1FED3D6A2B1D904602F1040A5FED78
:104370003F5A0022A84ED9E900EC51E0F4EEC67A8B
:10438000F1EE10FAC0F2C78247F6FE7045F822003F
:104390000CEB0100D0ED007A66EEA77AF4EEC77A56
:1043A000F1EE10FA4BD9F4EEC67AF1EE10FAC0F243
:1043B000BA8247F6FE70BBF1020F43F822002BD001
:1043C000D9F808000844D0ED007A66EEA77AF4EE3A
:1043D000C77AF1EE10FA36D9F4EEC67AF1EE10FA99
:1043E000C0F2CD8247F6FE7048F82200D9F80C00E2
:1043F0000144D1ED007A66EEA77AF4EEC77AF1EEC9
:1044000010FA1ED9F4EEC67AF1EE10FAC0F2AF82BD
:1044100047F6FE714AF82210023294427FF6B1AD9F
:1044200051080EEB81008900D0ED007A66EEA77A84
:10443000F4EEC77AF1EE10FAA0D83046A6E730467F
:10444000B9E73146E6E73046CEE7002C00F0E081E0
:10445000BBF1020FD8F8243000F0E1817A69DCF872
:10446000081003EB820EC7F804909300DFED6B5A3F
:104470000EF1040000227B61DCF80C303B61331D3F
:10448000D7F810903D61FD69C7E902CB8C468346A1
:1044900056F82210D8ED0C7A07EE101A53F82210B5
:1044A000B8EEC76A07EE101A5EF82210F8EEC76A77
:1044B00007EE101A26EE256A5BF82210B8EEC77ACE
:1044C00066EEA56A26EE276A27EE257A66EEA76ACB
:1044D00027EE277A07EE901A51080232F8EEE77AB3
:1044E0000AEB8100944280ED006A05EB810067EEE3
:1044F000A57AC0ED006A0CEB810009EB810180ED2B
:10450000007A98ED0C7A67EE877AC1ED007ABFD811
:10451000D7F804903D69D7E902CB60466208BB69D1
:1045200049469847D8F82C307A69D8ED0D6A1A4474
:104530009FED3E7A9FED3E6A131D9246DFF8E4C080
:104540000022FB612B1D364ED9E9008E4EE0F4EEC1
:10455000C67AF1EE10FAC0F2FC81304645F822002E
:104560000EEB0100D0ED007A66EEA77AF4EEC77A82
:10457000F1EE10FA49D9F4EEC67AF1EE10FAC0F273
:10458000EF813046BBF1020F43F822002AD0D9F860
:1045900008000844D0ED007A66EEA77AF4EEC77AF8
:1045A000F1EE10FA35D9F4EEC67AF1EE10FAC0F257
:1045B000C98130464AF82200D9F80C000144D1EDF7
:1045C000007A66EEA77AF4EEC77AF1EE10FA1ED9F9
:1045D000F4EEC67AF1EE10FAC0F2AD813146F86918
:1045E00040F82210023294427FF6CBAC510808EB1F
:1045F00081008900D0ED007A66EEA77AF4EEC77AE2
:10460000F1EE10FAA3D86046A8E76046BAE7614623
:10461000E5E76046CEE700BF0280FFFF0000003004
:104620000082FF7F007E00800000003404FF7FBF17
:1046300004FF7F3F002C00F0EB807A690021D8F85E
:104640002430C7F8109003EB820ED7F81C9093002B
:10465000FD610EF104021FED0C6A7B61331D1546EE
:1046600056F821204808D8ED0C6ABBF1020F82F4FD
:104670000002A2F5000207EE902A53F8212082F4EE
:104680000002B8EEE77AA2F5000227EE067A07EEFE
:10469000902A0AEB8002F8EEE77A27EE267A67EE98
:1046A000867A82ED007A09EB80024FEA800067EE9D
:1046B000A67AC2ED007A27D05EF8212082F40002AB
:1046C000A2F5000207EE902A55F8212082F400029C
:1046D000B8EEE77AA2F5000227EE067A07EE902AF6
:1046E000DCF80820F8EEE77A024427EE267A67EE37
:1046F000867A82ED007A98ED0C7ADCF80C2067EE71
:10470000877A0244C2ED007A02318C42A8D8D7F8E9
:10471000109060466208BB694946FD699847D8F821
:104720002C307A69D8ED0D6A1A441FED407A1FEDDE
:10473000406A131D9246DFF8C4C20022FB612B1DA4
:10474000AB4ED9E9008E4EE0F4EEC67AF1EE10FAE7
:10475000C0F2C580304645F822000EEB0100D0EDD6
:10476000007A66EEA77AF4EEC77AF1EE10FA49D92C
:10477000F4EEC67AF1EE10FAC0F2BF803046BBF11B
:10478000020F43F822002AD0D9F808000844D0EDDF
:10479000007A66EEA77AF4EEC77AF1EE10FA35D910
:1047A000F4EEC67AF1EE10FAC0F2AE8030464AF866
:1047B0002200D9F80C000144D1ED007A66EEA77A08
:1047C000F4EEC77AF1EE10FA1ED9F4EEC67AF1EEE5
:1047D00010FAC0F28B803146F86940F8221002329C
:1047E00094427FF6CEAB510808EB81008900D0EDF2
:1047F000007A66EEA77AF4EEC77AF1EE10FAA3D843
:104800006046A8E76046BAE76146E5E76046CEE75E
:10481000224649466046BB699847FFF7B2BBC7F8D6
:1048200010B0002298ED0C6A331DDFED726AD7F8E4
:104830001CB0786956F8221007EE901A53F822102F
:10484000B8EEE77A07EE901A51080232F8EEE77AEE
:1048500027EE267A0AEB810E94420BEB810167EE7C
:10486000A67A27EE067A67EE867A8EED007AC1ED9B
:10487000007ADFD88300D7F810B07B614DE61A4686
:10488000C7F810B098ED0C6A331DDFED5B6AD7F8FE
:104890001CB0786936F9221007EE101A33F922108D
:1048A00007EE901AB8EEC77A51080232F8EEE77AAE
:1048B00027EE267A0AEB810E94420BEB810167EE1C
:1048C000A67A27EE067A67EE867A8EED007AC1ED3B
:1048D000007ADFD88300D7F810B07B6134E5F0EEC2
:1048E000675AFEEEE45A15EE900A34E7F0EE675A86
:1048F000FEEEE45A15EE901A6EE7F0EE675AFEEE01
:10490000E45A15EE900A3AE7F0EE675AFEEEE45AE2
:1049100015EE900A4BE767EEA57AFDEEE77A17EE03
:10492000900A00B232E567EEA57AFDEEE77A17EE5F
:10493000900A00B23FE5F0EE675AFEEEE05A15EE3F
:10494000901A4CE6F0EE675AFEEEE05A15EE900A29
:1049500030E6F0EE675AFEEEE05A15EE900AFDE5FD
:10496000F0EE675AFEEEE05A15EE900A0AE667EEA0
:10497000A57AFDEEE77A17EE901A09B24AE567EEDE
:10498000A57AFDEEE77A17EE900A00B22CE5F0EE7C
:10499000675AFEEEE45A15EE902A1FE467EEA57AF8
:1049A000FDEEE77A17EE902A12B2FFF731BBF0EE78
:1049B000675AFEEEE45A15EE902AFFF7FDBBF0EEC3
:1049C000675AFEEEE05A15EE902AFFF79BBBF0EE19
:1049D000675AFEEEE05A15EE902AFFF780BB67EEAD
:1049E000A57AFDEEE77A17EE902A12B2FFF724BB04
:1049F00082FF7F0000000030000000387E0080FF52
:104A000030B5184C154685B0046004F1080EEC462C
:104A10000FC98EE80F00D4ED047AF5EEC07A8CE869
:104A20000F00F1EE10FA1ADDB7EE006A94ED057A88
:104A300027EE277AC6EE276A84ED0D7AC4ED0C6A5C
:104A40006DB1204640F8185F01F09EFB06490369EE
:104A50000020064A2162A262E36005B030BD012059
:104A600005B030BD4896042400200030000000301E
:104A700000680830704700BFB1F5807F03680A46C0
:104A800028BF4FF48072B1F5807F9A6094BF0020F8
:104A9000012070470068183001F0D6BB70B504687B
:104AA0008AB0A369E160CBB104F11805284601F092
:104AB0006BFB8446EE46E668BCE80F00AEE80F00EC
:104AC000BCE80F00AEE80F009CE803008EE803008E
:104AD00069462846049601F05FFAF8B9E069D8B152
:104AE00004F11C05284601F04FFB8446EE46E468BD
:104AF000BCE80F00AEE80F00BCE80F00AEE80F0006
:104B00009CE803008EE8030069462846049401F0FF
:104B100043FA003818BF01200AB070BD01200AB066
:104B200070BD00BF30B5046883B00D46E3694BB17A
:104B3000A3680020E26A616A9B00009004F11C00F7
:104B400001F024FBA3680748A26A9B00216A009039
:104B500004F1180001F01AFB0020C4E9005003B072
:104B600030BD00BF453E000810B4074B4FF07E51EA
:104B700030240022032019619C60D8605DF8044B4A
:104B80005961C3E90622704748960424704700BF64
:104B9000F8B5134F3C687F2C07D98023114A42F2A5
:104BA00024411C463B60A2F87E100F4D2B68012B60
:104BB0000AD90C4E0D4D22463146284600F074F9B4
:104BC0000028F8D13860F8BD22460649074800F0B1
:104BD0006BF90028F7D12B68386001332B60F8BDE2
:104BE0008496042488960424809604240897042438
:104BF00030B4154C2168F1B14B1E144DE81810F873
:104C000001298C4619460A2A01D00D2A02D14BB13E
:104C1000013BF4E70CF102037F2B10D980232360C2
:104C200030BC70470122022323600D200A23685400
:104C3000AB5430BC704701220223044DF4E70CF161
:104C400001026146F0E700BF84960424889604249C
:104C500010B5094C02460B46084821680844C1F1CA
:104C6000800111F093FC236818442060FFF7C0FF17
:104C7000FFF78EFF10BD00BF84960424889604249D
:104C80000FB400B583B004A951F8040B0191FFF7EC
:104C9000DFFF03B05DF804EB04B0704710B50446C5
:104CA00000210A4800F07AF8002C094B14BF0222B8
:104CB000002208481A60FFF7E3FF0748FFF7E0FF0C
:104CC0000A20BDE8104001F087BB00BF089704240C
:104CD0008096042494770108A4770108064A0749BE
:104CE000074808B50FF0A4FC034A04490548BDE88D
:104CF00008400FF09DBC00BF000000248D4B000851
:104D0000089704240C97042470B5044682B0C1F3BC
:104D10000726CDB2ADF8041001F05CFB4FF48072B1
:104D20004FF001232060A01DA571A280E671A36051
:104D300002B0BDE8704000F0D3B800BF38B50446FB
:104D400001F048FB002223682271834210D0012227
:104D5000A57AE37A954020602271A01D6DB243B917
:104D600000F09AF940B22843C0B27F28A0720AD05E
:104D700038BD00F091F9B0FA80F040092843C0B284
:104D80007F28A072F4D101F025FB07EE900AF8EE1F
:104D9000677AC4ED037A38BD704700BF012910B5AA
:104DA00006D0022915D051B1BDE8104005F070BC05
:104DB0000A463448344909F005FEE8B1FEE7334BB2
:104DC0000A46334C334934481C6009F0FBFD68B196
:104DD000FEE701222C492B4809F0F4FD00B1FEE763
:104DE0002E49284809F010FEC0B1FEE72B492A4899
:104DF00009F00AFE60B1FEE72849224809F004FEE6
:104E000000B1FEE726491F4809F08CFD08B3FEE714
:104E10002449214809F086FDA8B1FEE72049194838
:104E200009F080FD00B1FEE7164809F003FE0246D6
:104E300040B9164B164C174917481C6009F0C2FDC3
:104E400068B1FEE7FEE7144809F0F4FD0028ABD096
:104E5000FEE70C4809F0EEFD0028A5D0FEE70F495B
:104E60000D4809F0D1FD00B1FEE70E490A4809F0EE
:104E700059FD00B1FEE7084809F0DCFD002893D099
:104E8000FEE700BFAC990424BC000024489C042425
:104E9000994D0008A0000024109704242401002448
:104EA0008000002470000024084691B208B501F08B
:104EB0003BFD003818BF012008BD00BF014804F0C9
:104EC000C5BE00BFF0C40424014804F0BFBE00BF4B
:104ED000F0C40424014804F0B9BE00BFF0C40424A7
:104EE0008378022B30B504468FB037D0032B33D0F4
:104EF000012B31D000230A93E378012B2AD0022B17
:104F000028D000230B93002320460C9302F0EEF8E8
:104F10000546204602F0F2F823780990082B13D8B2
:104F2000DFE803F01F3245586B7E91A40500594B12
:104F3000D3F8E02042F48072C3F8E020D3F8E030E8
:104F400003F480730893089B09A9284603F096FA96
:104F50000FB030BD0B93D6E70A93CDE711230A9328
:104F6000CAE74C4B09A92846D3F8E02042F00102D9
:104F7000C3F8E020D3F8E03003F001030093009B76
:104F800003F07CFA0FB030BD424B09A92846D3F894
:104F9000E02042F00202C3F8E020D3F8E03003F052
:104FA00002030193019B03F069FA0FB030BD394B46
:104FB00009A92846D3F8E02042F00402C3F8E02013
:104FC000D3F8E03003F004030293029B03F056FA97
:104FD0000FB030BD2F4B09A92846D3F8E02042F08E
:104FE0000802C3F8E020D3F8E03003F0080303938D
:104FF000039B03F043FA0FB030BD264B09A92846A6
:10500000D3F8E02042F01002C3F8E020D3F8E030FB
:1050100003F010030493049B03F030FA0FB030BD8B
:105020001C4B09A92846D3F8E02042F02002C3F81F
:10503000E020D3F8E03003F020030593059B03F054
:105040001DFA0FB030BD134B09A92846D3F8E02054
:1050500042F04002C3F8E020D3F8E03003F0400310
:105060000693069B03F00AFA0FB030BD094B09A95D
:105070002846D3F8E02042F08002C3F8E020D3F8BD
:10508000E03003F080030793079B03F0F7F90FB0BC
:1050900030BD00BF0044025838B5054602F026F87E
:1050A0000446284602F02AF801462046BDE838406A
:1050B00003F0ECBB70B506460D4602F017F8044647
:1050C000304602F01BF82A1E0146204618BF012276
:1050D000BDE8704003F0E0BB0023122270B586B03B
:1050E000CDE9022304930368032B01D8042305931D
:1050F000061D841D304601F0F9FF0546304601F0DB
:10510000FDFF034601A92846019303F0B7F92046A5
:1051100001F0ECFF034620461C4601F0EFFF01A919
:1051200003462046019303F0A9F906B070BD00BF05
:10513000634A0368934210B58CB028D0614A934209
:1051400058D0614A934200F09480604A934201D063
:105150000CB010BD5E4C5F48D4F8E03043F0020361
:10516000C4F8E030D4F8E03003F002030A930A9B5D
:10517000FFF7B2FFD4F8F43043F08003C4F8F43002
:10518000D4F8F43003F080030B930B9BE0E7504C12
:105190005148D4F8E03043F00203C4F8E030D4F8CA
:1051A000E03003F002030193019BFFF795FFD4F871
:1051B000E83000221F2043F400131146C4F8E83001
:1051C000D4F8E83003F400130293029BD4F8D830EB
:1051D00043F00103C4F8D830D4F8D83003F0010309
:1051E0000393039B02F0CEF81F200CB0BDE81040E3
:1051F00002F006B9364C3948D4F8E03043F0800369
:10520000C4F8E030D4F8E03003F080030493049B4A
:10521000D4F8E03043F00203C4F8E030D4F8E030D2
:1052200003F002030593059BFFF756FFD4F8E8301F
:105230000022212043F480031146C4F8E830D4F85A
:10524000E83003F480030693069BD4F8D83043F08B
:105250000103C4F8D830D4F8D83003F00103079321
:10526000079B02F08FF821200CB0BDE8104002F03F
:10527000C7B81B48FFF730FF154B00224820D3F872
:10528000E840114644F40004C3F8E840D3F8E8408D
:1052900004F400040894089CD3F8D84044F00104B6
:1052A000C3F8D840D3F8D83003F001030993099B21
:1052B00002F068F848200CB0BDE8104002F0A0B839
:1052C0000054004000580040005C0040001C0058A2
:1052D00000440258D89E0424509C0424289D042491
:1052E000009E04242DE9F0431A4B87B000254FF0AF
:1052F00010099E46EC46184BFF22E04667461A709E
:105300000EF118060EF13004CDE90055CDE9025535
:10531000ADF80090BCE80F00CDE90455AEE80F00F1
:105320009CE803000095ADF800908EE80300B8E813
:105330000F000FC69CE803000095ADF8009086E8CA
:1053400003000FCF0FC49CE8030084E8030007B0FC
:10535000BDE8F083200000244D9C042410B5EFF339
:10536000108472B6084B1A78120602D504B962B6D8
:1053700010BD1B78D82205485BB202FB0300143035
:1053800002F02AFDF2E700BF4D9C0424509C042447
:10539000014804F041BB00BFDC9C0424014804F038
:1053A0003BBB00BFB49D0424014804F035BB00BFE3
:1053B0008C9E04242DE9F0430F68D8243F4D85B01E
:1053C00007FB04F4032F05EB0403036040DCCB6808
:1053D0000E46012B3CD84DD04FF0D808B646DFF82A
:1053E000FC9008FB0758BEE80F00C446ACE80F006D
:1053F000DEF800300DF1100ECCF80030D8F808C0FF
:1054000099E80F000EE90F000EEB8703BCF1010FC6
:1054100053F8103CC8F88C3031D0BCF1020F42D0A8
:10542000BCF1000F35D0317C8C34D8230022012010
:105430002C4403FB07534900C3E92602C3F8941028
:105440002046C3E92822C3E92A2203F02FFF18B11E
:10545000012005B0BDE8F0830146204604F0E8FADB
:105460000028F5D10146204604F00CFB003818BF97
:105470000120EEE70B7C103B672BADD9E8E701F08C
:1054800017F90F4B98420CBF0E4B0F4BC8F89030DA
:10549000C9E701F00DF90A4B98420CBF0B4B0C4BBE
:1054A000C8F89030BFE701F003F9054B98420CBFF4
:1054B000084B094BC8F89030B5E700BF509C042456
:1054C000000E27072D0FB0303211D0205F439060BF
:1054D0008A62E030200BA0101A0980101C770108A6
:1054E0002DE9F041D0F8008082B00D4617461E46E7
:1054F00008F18C04204604F097FA2028FAD1D8F855
:105500000C3073B96D002046089C33463A46A9B268
:10551000009403F021FF003818BF012002B0BDE85D
:10552000F081089B32463946204604F0BFF8F2E786
:105530002DE9F041D0F8008082B00D4617461E4696
:1055400008F18C04204604F06FFA2028FAD1D8F82C
:105550000C3073B96D002046089C33463A46A9B218
:10556000009403F0CDFF003818BF012002B0BDE861
:10557000F081089B32463946204604F07BF9F2E779
:10558000044B10221A7483F8E82083F8C02183F8B2
:1055900098227047509C042430B5002395B04FF4F6
:1055A0008071062204460B9306921393CDE90C13E7
:1055B000CDE90E33CDE9113301F07CF807282BD06B
:1055C00004F1100541F2883206A9284605F0ACF92D
:1055D00028B10123184684F85C3015B030BD022292
:1055E000022306A92846CDE9002310220123CDE994
:1055F000022300224FF48003CDE9042305224FF05B
:10560000807306926A460F9341F2883305F0F8FAE8
:105610000028DED115B030BD0323012084F85C30B2
:1056200015B030BD0000000070B50023A4B04FF0ED
:1056300080724FF480750446ADF806300D93CDE9C5
:1056400010320122CDE90E53CDE91223CDE91433F6
:10565000002943D0F02300F1100508AEADF8063064
:10566000C02341F2883231462846089305F05CF9A0
:1056700028B10123184684F85C3024B070BD41F293
:1056800088320DF10601284605F0B8F903460028D6
:10569000EFD105224FF480711E93284616924FF0E9
:1056A00080721B9321931F9202AA9FED1F7BCDE96D
:1056B0001C13CDE922338DED027B9FED1D7B41F262
:1056C000883316A98DED047B9FED1B7B8DED067B4A
:1056D00005F096FA0028CCD124B070BD00F1100579
:1056E00008AE612341F2883231462846089305F01E
:1056F0001BF90028BDD141F288320DF10601284680
:1057000005F0FAF90028B4D1BDF80630204623F0A0
:10571000780343F04003ADF80630FFF73DFF002863
:105720009ED0A6E7AFF3008000000000010000005B
:105730001000000001000000000000000000400018
:105740002DE9F04F00234FF4807501264FF080784B
:1057500004462DED028BABB08DF8073013932193E7
:10576000299314950E96CDF85C80CDE91533CDE9DB
:105770001863CDE91A33CDE92253CDE92433CDE9BD
:10578000273306231C9300F095FF072808D004F167
:10579000100741F288321CA9384605F0C5F840B11F
:1057A0000123184684F85C302BB0BDEC028BBDE8B9
:1057B000F08F4FF0020A4FF0020B4FF0050941F253
:1057C000883308AA1CA93846CDF89480CDF870908B
:1057D0009FED2D8BCDE908AB4FF0000A4FF4800B05
:1057E0008DED0A8BCDE90CAB05F00AFA0028D7D174
:1057F00041F2883238460EA905F096F80028CFD13C
:10580000402341F288320DF1070138468DF8073008
:1058100005F0F4F80028C3D141F288330EA902AA9A
:105820003846CDF83890CDF85C809FED197B8DED32
:10583000048BCDE906AB8DED027B05F0E1F9034663
:105840000028ADD1CDF870904FF00109CDF89480CB
:105850004FF00008219308AA29931CA938462295E5
:10586000CDE92333CDE9273341F288338DED0A8B1F
:10587000CDE90CABCDE9088905F0C2F9002893D039
:10588000304684F85C608FE71000000001000000E3
:1058900040000000400000002DE9F043624CA3B03E
:1058A0000D46046000F006FF072800F0A980286874
:1058B00023466968AA6807C31E46AB8926F8043BDD
:1058C0003046257B677B05F011F8E0B9574B012D79
:1058D0004FF00108E061236114BF4FF480134FF4CF
:1058E0000003C4E9058893FAA3F3B3FA83F34FF4F2
:1058F0008079013BC4F82490C4E90B003046236250
:1059000004F088FF38B10122134684F85C20184661
:1059100023B0BDE8F08366230B90139041F28832E8
:1059200006A90693CDE90C90CDE90E00CDE9110052
:10593000304604F0F9FF0028E5D1992341F288327E
:1059400006A93046069304F0EFFF0028DBD10523BB
:105950001C9019906A4614934FF08073219014A9FB
:105960001D9341F288339FED2A7BCDE91A90CDE952
:105970001F008DED007B9FED287B30468DED027B77
:105980009FED277B8DED047B05F03AF90028BAD115
:1059900029462046FFF748FE0028B4D12046FFF7ED
:1059A000CFFE03460028AED1002FB0D11893304669
:1059B0000027002606AA14A9CDF86890CDE91F3368
:1059C000EB2314934FF440631B934FF4005317934E
:1059D0004FF440431C93A0231693062319934FF0D2
:1059E000805321934FF04073CDE906671D9305F076
:1059F0007FF9034600288AD0434684F85C8086E716
:105A000001230322184684F85C2023B0BDE8F0830C
:105A10000000000001000000100000000100000074
:105A20000000000000004000B09F0424005000521D
:105A30002DE9F04F8FB0414B0024026800AF9A422D
:105A40007C63C7E90944C7E90B4403D03C37BD4632
:105A5000BDE8F08F3A4B40F609213A48EB46D3F8BF
:105A6000D42007F11C0607F1220A4FF0020942F484
:105A700080424FF00308C3F8D420D3F8D42002F4B6
:105A80008042BA60BA68D3F8E02042F04002C3F81E
:105A9000E020D3F8E02002F04002FA60FA68D3F880
:105AA000E02042F02002C3F8E020D3F8E02002F02A
:105AB00020023A613A69D3F8E02042F01002C3F8BC
:105AC000E020D3F8E02002F010027A617A69D3F87E
:105AD000E02042F00202C3F8E020D3F8E030F861A1
